{
  "contractName": "SupplyChain",
  "abi": [
    {
      "inputs": [
        {
          "internalType": "string",
          "name": "",
          "type": "string"
        }
      ],
      "name": "products",
      "outputs": [
        {
          "internalType": "string",
          "name": "name",
          "type": "string"
        },
        {
          "internalType": "string",
          "name": "productCode",
          "type": "string"
        },
        {
          "internalType": "string",
          "name": "description",
          "type": "string"
        },
        {
          "internalType": "address",
          "name": "owner",
          "type": "address"
        }
      ],
      "stateMutability": "view",
      "type": "function",
      "constant": true
    },
    {
      "inputs": [
        {
          "internalType": "string",
          "name": "_name",
          "type": "string"
        },
        {
          "internalType": "string",
          "name": "_productCode",
          "type": "string"
        },
        {
          "internalType": "string",
          "name": "_description",
          "type": "string"
        }
      ],
      "name": "registerProduct",
      "outputs": [],
      "stateMutability": "nonpayable",
      "type": "function"
    },
    {
      "inputs": [
        {
          "internalType": "string",
          "name": "_productCode",
          "type": "string"
        }
      ],
      "name": "getProduct",
      "outputs": [
        {
          "internalType": "string",
          "name": "",
          "type": "string"
        },
        {
          "internalType": "string",
          "name": "",
          "type": "string"
        },
        {
          "internalType": "string",
          "name": "",
          "type": "string"
        },
        {
          "internalType": "address",
          "name": "",
          "type": "address"
        }
      ],
      "stateMutability": "view",
      "type": "function",
      "constant": true
    }
  ],
  "bytecode": "0x608060405234801561001057600080fd5b50610ac4806100206000396000f3fe608060405234801561001057600080fd5b50600436106100415760003560e01c80630186a423146100465780633406b7181461007957806368111cce14610095575b600080fd5b610060600480360381019061005b919061072f565b6100c8565b6040516100709493929190610897565b60405180910390f35b610093600480360381019061008e9190610770565b6102c6565b005b6100af60048036038101906100aa919061072f565b6103c1565b6040516100bf9493929190610897565b60405180910390f35b600081805160208101820180518482526020830160208501208183528095505050505050600091509050806000018054610101906109ed565b80601f016020809104026020016040519081016040528092919081815260200182805461012d906109ed565b801561017a5780601f1061014f5761010080835404028352916020019161017a565b820191906000526020600020905b81548152906001019060200180831161015d57829003601f168201915b50505050509080600101805461018f906109ed565b80601f01602080910402602001604051908101604052809291908181526020018280546101bb906109ed565b80156102085780601f106101dd57610100808354040283529160200191610208565b820191906000526020600020905b8154815290600101906020018083116101eb57829003601f168201915b50505050509080600201805461021d906109ed565b80601f0160208091040260200160405190810160405280929190818152602001828054610249906109ed565b80156102965780601f1061026b57610100808354040283529160200191610296565b820191906000526020600020905b81548152906001019060200180831161027957829003601f168201915b5050505050908060030160009054906101000a900473ffffffffffffffffffffffffffffffffffffffff16905084565b60405180608001604052808481526020018381526020018281526020013373ffffffffffffffffffffffffffffffffffffffff1681525060008360405161030d9190610880565b90815260200160405180910390206000820151816000019080519060200190610337929190610624565b506020820151816001019080519060200190610354929190610624565b506040820151816002019080519060200190610371929190610624565b5060608201518160030160006101000a81548173ffffffffffffffffffffffffffffffffffffffff021916908373ffffffffffffffffffffffffffffffffffffffff160217905550905050505050565b60608060606000806000866040516103d99190610880565b9081526020016040518091039020604051806080016040529081600082018054610402906109ed565b80601f016020809104026020016040519081016040528092919081815260200182805461042e906109ed565b801561047b5780601f106104505761010080835404028352916020019161047b565b820191906000526020600020905b81548152906001019060200180831161045e57829003601f168201915b50505050508152602001600182018054610494906109ed565b80601f01602080910402602001604051908101604052809291908181526020018280546104c0906109ed565b801561050d5780601f106104e25761010080835404028352916020019161050d565b820191906000526020600020905b8154815290600101906020018083116104f057829003601f168201915b50505050508152602001600282018054610526906109ed565b80601f0160208091040260200160405190810160405280929190818152602001828054610552906109ed565b801561059f5780601f106105745761010080835404028352916020019161059f565b820191906000526020600020905b81548152906001019060200180831161058257829003601f168201915b505050505081526020016003820160009054906101000a900473ffffffffffffffffffffffffffffffffffffffff1673ffffffffffffffffffffffffffffffffffffffff1673ffffffffffffffffffffffffffffffffffffffff1681525050905080600001518160200151826040015183606001519450945094509450509193509193565b828054610630906109ed565b90600052602060002090601f0160209004810192826106525760008555610699565b82601f1061066b57805160ff1916838001178555610699565b82800160010185558215610699579182015b8281111561069857825182559160200191906001019061067d565b5b5090506106a691906106aa565b5090565b5b808211156106c35760008160009055506001016106ab565b5090565b60006106da6106d584610922565b6108f1565b9050828152602081018484840111156106f257600080fd5b6106fd8482856109ab565b509392505050565b600082601f83011261071657600080fd5b81356107268482602086016106c7565b91505092915050565b60006020828403121561074157600080fd5b600082013567ffffffffffffffff81111561075b57600080fd5b61076784828501610705565b91505092915050565b60008060006060848603121561078557600080fd5b600084013567ffffffffffffffff81111561079f57600080fd5b6107ab86828701610705565b935050602084013567ffffffffffffffff8111156107c857600080fd5b6107d486828701610705565b925050604084013567ffffffffffffffff8111156107f157600080fd5b6107fd86828701610705565b9150509250925092565b61081081610979565b82525050565b600061082182610952565b61082b818561095d565b935061083b8185602086016109ba565b61084481610a7d565b840191505092915050565b600061085a82610952565b610864818561096e565b93506108748185602086016109ba565b80840191505092915050565b600061088c828461084f565b915081905092915050565b600060808201905081810360008301526108b18187610816565b905081810360208301526108c58186610816565b905081810360408301526108d98185610816565b90506108e86060830184610807565b95945050505050565b6000604051905081810181811067ffffffffffffffff8211171561091857610917610a4e565b5b8060405250919050565b600067ffffffffffffffff82111561093d5761093c610a4e565b5b601f19601f8301169050602081019050919050565b600081519050919050565b600082825260208201905092915050565b600081905092915050565b60006109848261098b565b9050919050565b600073ffffffffffffffffffffffffffffffffffffffff82169050919050565b82818337600083830152505050565b60005b838110156109d85780820151818401526020810190506109bd565b838111156109e7576000848401525b50505050565b60006002820490506001821680610a0557607f821691505b60208210811415610a1957610a18610a1f565b5b50919050565b7f4e487b7100000000000000000000000000000000000000000000000000000000600052602260045260246000fd5b7f4e487b7100000000000000000000000000000000000000000000000000000000600052604160045260246000fd5b6000601f19601f830116905091905056fea2646970667358221220ba4fea9fb14c35dbd51368ec3fdeeb7f4c1bf5b93a0062adae288096b51117b564736f6c63430008000033",
  "immutableReferences": {},
  "source": "// SPDX-License-Identifier: MIT\r\npragma solidity ^0.8.0;\r\n\r\ncontract SupplyChain {\r\n    struct Product {\r\n        string name;\r\n        string productCode;\r\n        string description;\r\n        address owner;\r\n    }\r\n\r\n    mapping(string => Product) public products;\r\n\r\n    function registerProduct(string memory _name, string memory _productCode, string memory _description) public {\r\n        products[_productCode] = Product(_name, _productCode, _description, msg.sender);\r\n    }\r\n\r\n    function getProduct(string memory _productCode) public view returns (string memory, string memory, string memory, address) {\r\n        Product memory product = products[_productCode];\r\n        return (product.name, product.productCode, product.description, product.owner);\r\n    }\r\n}",
  "sourcePath": "C:\\Users\\laksh\\dec\\blockchain\\contracts\\SupplyChain.sol",
  "compiler": {
    "name": "solc",
    "version": "0.8.0+commit.c7dfd78e.Emscripten.clang"
  },
  "schemaVersion": "3.4.16",
  "updatedAt": "2025-03-10T19:09:50.543Z",
  "networkType": "ethereum",
  "devdoc": {
    "kind": "dev",
    "methods": {},
    "version": 1
  },
  "userdoc": {
    "kind": "user",
    "methods": {},
    "version": 1
  }
}